{
  "contractName": "OriginalTokenMock",
  "abi": [
    {
      "constant": false,
      "inputs": [
        {
          "name": "_link",
          "type": "string"
        }
      ],
      "name": "setLink",
      "outputs": [
        {
          "name": "",
          "type": "bool"
        }
      ],
      "payable": false,
      "stateMutability": "nonpayable",
      "type": "function"
    },
    {
      "constant": true,
      "inputs": [],
      "name": "link",
      "outputs": [
        {
          "name": "",
          "type": "string"
        }
      ],
      "payable": false,
      "stateMutability": "view",
      "type": "function"
    },
    {
      "constant": false,
      "inputs": [],
      "name": "accept",
      "outputs": [
        {
          "name": "",
          "type": "bool"
        }
      ],
      "payable": false,
      "stateMutability": "nonpayable",
      "type": "function"
    },
    {
      "constant": false,
      "inputs": [],
      "name": "kill",
      "outputs": [
        {
          "name": "",
          "type": "bool"
        }
      ],
      "payable": false,
      "stateMutability": "nonpayable",
      "type": "function"
    },
    {
      "constant": false,
      "inputs": [],
      "name": "refuse",
      "outputs": [
        {
          "name": "",
          "type": "bool"
        }
      ],
      "payable": false,
      "stateMutability": "nonpayable",
      "type": "function"
    },
    {
      "constant": true,
      "inputs": [],
      "name": "owner",
      "outputs": [
        {
          "name": "",
          "type": "address"
        }
      ],
      "payable": false,
      "stateMutability": "view",
      "type": "function"
    },
    {
      "constant": true,
      "inputs": [],
      "name": "isPending",
      "outputs": [
        {
          "name": "",
          "type": "bool"
        }
      ],
      "payable": false,
      "stateMutability": "view",
      "type": "function"
    },
    {
      "constant": false,
      "inputs": [
        {
          "name": "_newKey",
          "type": "string"
        }
      ],
      "name": "setKey",
      "outputs": [
        {
          "name": "",
          "type": "bool"
        }
      ],
      "payable": false,
      "stateMutability": "nonpayable",
      "type": "function"
    },
    {
      "constant": false,
      "inputs": [
        {
          "name": "_to",
          "type": "address"
        }
      ],
      "name": "sendToken",
      "outputs": [
        {
          "name": "",
          "type": "bool"
        }
      ],
      "payable": false,
      "stateMutability": "nonpayable",
      "type": "function"
    },
    {
      "constant": true,
      "inputs": [],
      "name": "encryptedKey",
      "outputs": [
        {
          "name": "",
          "type": "string"
        }
      ],
      "payable": false,
      "stateMutability": "view",
      "type": "function"
    },
    {
      "constant": false,
      "inputs": [],
      "name": "cancel",
      "outputs": [
        {
          "name": "",
          "type": "bool"
        }
      ],
      "payable": false,
      "stateMutability": "nonpayable",
      "type": "function"
    },
    {
      "inputs": [
        {
          "name": "_encryptedKey",
          "type": "string"
        },
        {
          "name": "_link",
          "type": "string"
        }
      ],
      "payable": false,
      "stateMutability": "nonpayable",
      "type": "constructor"
    }
  ],
  "bytecode": "0x60806040523480156200001157600080fd5b50604051620013aa380380620013aa833981018060405281019080805182019291906020018051820192919050505033600260006101000a81548173ffffffffffffffffffffffffffffffffffffffff021916908373ffffffffffffffffffffffffffffffffffffffff160217905550806001908051906020019062000099929190620000fd565b506000600360006101000a81548173ffffffffffffffffffffffffffffffffffffffff021916908373ffffffffffffffffffffffffffffffffffffffff1602179055508160009080519060200190620000f4929190620000fd565b505050620001ac565b828054600181600116156101000203166002900490600052602060002090601f016020900481019282601f106200014057805160ff191683800117855562000171565b8280016001018555821562000171579182015b828111156200017057825182559160200191906001019062000153565b5b50905062000180919062000184565b5090565b620001a991905b80821115620001a55760008160009055506001016200018b565b5090565b90565b6111ee80620001bc6000396000f3006080604052600436106100af576000357c0100000000000000000000000000000000000000000000000000000000900463ffffffff16806319337d6c146100b45780631c4695f4146101075780632852b71c1461019757806341c0e1b5146101c657806362c69b80146101f55780638da5cb5b146102245780639c30ad7e1461027b578063af42d106146102aa578063c575c238146102fd578063cfa3b50714610358578063ea8a1af0146103e8575b600080fd5b3480156100c057600080fd5b506100ed600480360381019080803590602001908201803590602001919091929391929390505050610417565b604051808215151515815260200191505060405180910390f35b34801561011357600080fd5b5061011c6105c0565b6040518080602001828103825283818151815260200191508051906020019080838360005b8381101561015c578082015181840152602081019050610141565b50505050905090810190601f1680156101895780820380516001836020036101000a031916815260200191505b509250505060405180910390f35b3480156101a357600080fd5b506101ac61065e565b604051808215151515815260200191505060405180910390f35b3480156101d257600080fd5b506101db6107d1565b604051808215151515815260200191505060405180910390f35b34801561020157600080fd5b5061020a610999565b604051808215151515815260200191505060405180910390f35b34801561023057600080fd5b50610239610aa9565b604051808273ffffffffffffffffffffffffffffffffffffffff1673ffffffffffffffffffffffffffffffffffffffff16815260200191505060405180910390f35b34801561028757600080fd5b50610290610acf565b604051808215151515815260200191505060405180910390f35b3480156102b657600080fd5b506102e3600480360381019080803590602001908201803590602001919091929391929390505050610b28565b604051808215151515815260200191505060405180910390f35b34801561030957600080fd5b5061033e600480360381019080803573ffffffffffffffffffffffffffffffffffffffff169060200190929190505050610cd1565b604051808215151515815260200191505060405180910390f35b34801561036457600080fd5b5061036d610ea8565b6040518080602001828103825283818151815260200191508051906020019080838360005b838110156103ad578082015181840152602081019050610392565b50505050905090810190601f1680156103da5780820380516001836020036101000a031916815260200191505b509250505060405180910390f35b3480156103f457600080fd5b506103fd610f46565b604051808215151515815260200191505060405180910390f35b6000600260009054906101000a900473ffffffffffffffffffffffffffffffffffffffff1673ffffffffffffffffffffffffffffffffffffffff163373ffffffffffffffffffffffffffffffffffffffff161415156104de576040517f08c379a000000000000000000000000000000000000000000000000000000000815260040180806020018281038252600d8152602001807f6e6f7420746865206f776e65720000000000000000000000000000000000000081525060200191505060405180910390fd5b600073ffffffffffffffffffffffffffffffffffffffff16600360009054906101000a900473ffffffffffffffffffffffffffffffffffffffff1673ffffffffffffffffffffffffffffffffffffffff161415156105a4576040517f08c379a000000000000000000000000000000000000000000000000000000000815260040180806020018281038252600f8152602001807f70656e64696e67207061796d656e74000000000000000000000000000000000081525060200191505060405180910390fd5b8282600191906105b592919061111d565b506001905092915050565b60018054600181600116156101000203166002900480601f0160208091040260200160405190810160405280929190818152602001828054600181600116156101000203166002900480156106565780601f1061062b57610100808354040283529160200191610656565b820191906000526020600020905b81548152906001019060200180831161063957829003601f168201915b505050505081565b6000600360009054906101000a900473ffffffffffffffffffffffffffffffffffffffff1673ffffffffffffffffffffffffffffffffffffffff163373ffffffffffffffffffffffffffffffffffffffff16141515610725576040517f08c379a00000000000000000000000000000000000000000000000000000000081526004018080602001828103825260118152602001807f6e6f742074686520726563697069656e7400000000000000000000000000000081525060200191505060405180910390fd5b600360009054906101000a900473ffffffffffffffffffffffffffffffffffffffff16600260006101000a81548173ffffffffffffffffffffffffffffffffffffffff021916908373ffffffffffffffffffffffffffffffffffffffff1602179055506000600360006101000a81548173ffffffffffffffffffffffffffffffffffffffff021916908373ffffffffffffffffffffffffffffffffffffffff1602179055506001905090565b6000600260009054906101000a900473ffffffffffffffffffffffffffffffffffffffff1673ffffffffffffffffffffffffffffffffffffffff163373ffffffffffffffffffffffffffffffffffffffff16141515610898576040517f08c379a000000000000000000000000000000000000000000000000000000000815260040180806020018281038252600d8152602001807f6e6f7420746865206f776e65720000000000000000000000000000000000000081525060200191505060405180910390fd5b600073ffffffffffffffffffffffffffffffffffffffff16600360009054906101000a900473ffffffffffffffffffffffffffffffffffffffff1673ffffffffffffffffffffffffffffffffffffffff1614151561095e576040517f08c379a00000000000000000000000000000000000000000000000000000000081526004018080602001828103825260108152602001807f70656e64696e6720706179656d656e740000000000000000000000000000000081525060200191505060405180910390fd5b600260009054906101000a900473ffffffffffffffffffffffffffffffffffffffff1673ffffffffffffffffffffffffffffffffffffffff16ff5b6000600360009054906101000a900473ffffffffffffffffffffffffffffffffffffffff1673ffffffffffffffffffffffffffffffffffffffff163373ffffffffffffffffffffffffffffffffffffffff16141515610a60576040517f08c379a00000000000000000000000000000000000000000000000000000000081526004018080602001828103825260118152602001807f6e6f742074686520726563697069656e7400000000000000000000000000000081525060200191505060405180910390fd5b6000600360006101000a81548173ffffffffffffffffffffffffffffffffffffffff021916908373ffffffffffffffffffffffffffffffffffffffff1602179055506001905090565b600260009054906101000a900473ffffffffffffffffffffffffffffffffffffffff1681565b60008073ffffffffffffffffffffffffffffffffffffffff16600360009054906101000a900473ffffffffffffffffffffffffffffffffffffffff1673ffffffffffffffffffffffffffffffffffffffff161415905090565b6000600260009054906101000a900473ffffffffffffffffffffffffffffffffffffffff1673ffffffffffffffffffffffffffffffffffffffff163373ffffffffffffffffffffffffffffffffffffffff16141515610bef576040517f08c379a000000000000000000000000000000000000000000000000000000000815260040180806020018281038252600d8152602001807f6e6f7420746865206f776e65720000000000000000000000000000000000000081525060200191505060405180910390fd5b600073ffffffffffffffffffffffffffffffffffffffff16600360009054906101000a900473ffffffffffffffffffffffffffffffffffffffff1673ffffffffffffffffffffffffffffffffffffffff16141515610cb5576040517f08c379a000000000000000000000000000000000000000000000000000000000815260040180806020018281038252600f8152602001807f70656e64696e67207061796d656e74000000000000000000000000000000000081525060200191505060405180910390fd5b828260009190610cc692919061111d565b506001905092915050565b60003373ffffffffffffffffffffffffffffffffffffffff16600260009054906101000a900473ffffffffffffffffffffffffffffffffffffffff1673ffffffffffffffffffffffffffffffffffffffff16141515610d98576040517f08c379a000000000000000000000000000000000000000000000000000000000815260040180806020018281038252600d8152602001807f6e6f7420746865206f776e65720000000000000000000000000000000000000081525060200191505060405180910390fd5b600073ffffffffffffffffffffffffffffffffffffffff16600360009054906101000a900473ffffffffffffffffffffffffffffffffffffffff1673ffffffffffffffffffffffffffffffffffffffff16141515610e5e576040517f08c379a000000000000000000000000000000000000000000000000000000000815260040180806020018281038252600f8152602001807f70656e64696e67207061796d656e74000000000000000000000000000000000081525060200191505060405180910390fd5b81600360006101000a81548173ffffffffffffffffffffffffffffffffffffffff021916908373ffffffffffffffffffffffffffffffffffffffff16021790555060019050919050565b60008054600181600116156101000203166002900480601f016020809104026020016040519081016040528092919081815260200182805460018160011615610100020316600290048015610f3e5780601f10610f1357610100808354040283529160200191610f3e565b820191906000526020600020905b815481529060010190602001808311610f2157829003601f168201915b505050505081565b6000600260009054906101000a900473ffffffffffffffffffffffffffffffffffffffff1673ffffffffffffffffffffffffffffffffffffffff163373ffffffffffffffffffffffffffffffffffffffff1614151561100d576040517f08c379a000000000000000000000000000000000000000000000000000000000815260040180806020018281038252600d8152602001807f6e6f7420746865206f776e65720000000000000000000000000000000000000081525060200191505060405180910390fd5b600073ffffffffffffffffffffffffffffffffffffffff16600360009054906101000a900473ffffffffffffffffffffffffffffffffffffffff1673ffffffffffffffffffffffffffffffffffffffff16141515156110d4576040517f08c379a000000000000000000000000000000000000000000000000000000000815260040180806020018281038252600f8152602001807f70656e64696e67207061796d656e74000000000000000000000000000000000081525060200191505060405180910390fd5b6000600360006101000a81548173ffffffffffffffffffffffffffffffffffffffff021916908373ffffffffffffffffffffffffffffffffffffffff1602179055506001905090565b828054600181600116156101000203166002900490600052602060002090601f016020900481019282601f1061115e57803560ff191683800117855561118c565b8280016001018555821561118c579182015b8281111561118b578235825591602001919060010190611170565b5b509050611199919061119d565b5090565b6111bf91905b808211156111bb5760008160009055506001016111a3565b5090565b905600a165627a7a723058206ce4c7b6133ba89b4fbc80c9bae7f2012be5800e9d6ed2a0a3608f6a6b1464260029",
  "source": "pragma solidity ^0.4.24;\n\nimport \"./OriginalToken.sol\";\n\ncontract OriginalTokenMock is OriginalToken {\n    constructor(string _encryptedKey, string _link) public {\n        owner = msg.sender;\n        link = _link;\n        newOwner = address(0);\n        encryptedKey = _encryptedKey;\n    }\n}",
  "sourcePath": "/home/giulio/DAPPS/originTKN/contracts/OriginalTokenMock.sol",
  "compiler": {
    "name": "solc",
    "version": "0.4.24+commit.e67f0147.Emscripten.clang"
  },
  "schemaVersion": "2.0.1",
  "updatedAt": "2018-07-22T14:35:04.658Z"
}