{
  "contractName": "OriginalPermissionedToken",
  "abi": [
    {
      "constant": true,
      "inputs": [],
      "name": "owner",
      "outputs": [
        {
          "name": "",
          "type": "address"
        }
      ],
      "payable": false,
      "stateMutability": "view",
      "type": "function"
    },
    {
      "constant": false,
      "inputs": [
        {
          "name": "_to",
          "type": "address"
        }
      ],
      "name": "sendToken",
      "outputs": [
        {
          "name": "",
          "type": "bool"
        }
      ],
      "payable": false,
      "stateMutability": "nonpayable",
      "type": "function"
    },
    {
      "constant": false,
      "inputs": [],
      "name": "accept",
      "outputs": [
        {
          "name": "",
          "type": "bool"
        }
      ],
      "payable": false,
      "stateMutability": "nonpayable",
      "type": "function"
    },
    {
      "constant": false,
      "inputs": [],
      "name": "refuse",
      "outputs": [
        {
          "name": "",
          "type": "bool"
        }
      ],
      "payable": false,
      "stateMutability": "nonpayable",
      "type": "function"
    },
    {
      "constant": false,
      "inputs": [],
      "name": "cancel",
      "outputs": [
        {
          "name": "",
          "type": "bool"
        }
      ],
      "payable": false,
      "stateMutability": "nonpayable",
      "type": "function"
    },
    {
      "constant": true,
      "inputs": [],
      "name": "isPending",
      "outputs": [
        {
          "name": "",
          "type": "bool"
        }
      ],
      "payable": false,
      "stateMutability": "view",
      "type": "function"
    },
    {
      "constant": false,
      "inputs": [
        {
          "name": "_newKey",
          "type": "string"
        }
      ],
      "name": "setKey",
      "outputs": [
        {
          "name": "",
          "type": "bool"
        }
      ],
      "payable": false,
      "stateMutability": "nonpayable",
      "type": "function"
    },
    {
      "constant": false,
      "inputs": [
        {
          "name": "_link",
          "type": "string"
        }
      ],
      "name": "setLink",
      "outputs": [
        {
          "name": "",
          "type": "bool"
        }
      ],
      "payable": false,
      "stateMutability": "nonpayable",
      "type": "function"
    },
    {
      "constant": false,
      "inputs": [],
      "name": "kill",
      "outputs": [
        {
          "name": "",
          "type": "bool"
        }
      ],
      "payable": false,
      "stateMutability": "nonpayable",
      "type": "function"
    },
    {
      "constant": true,
      "inputs": [],
      "name": "getKey",
      "outputs": [
        {
          "name": "",
          "type": "string"
        }
      ],
      "payable": false,
      "stateMutability": "view",
      "type": "function"
    },
    {
      "constant": true,
      "inputs": [],
      "name": "getLink",
      "outputs": [
        {
          "name": "",
          "type": "string"
        }
      ],
      "payable": false,
      "stateMutability": "view",
      "type": "function"
    }
  ],
  "bytecode": "0x608060405234801561001057600080fd5b506112a4806100206000396000f3006080604052600436106100af576000357c0100000000000000000000000000000000000000000000000000000000900463ffffffff16806319337d6c146100b45780632852b71c1461010757806341c0e1b51461013657806362c69b801461016557806382678dd6146101945780638da5cb5b146102245780639c30ad7e1461027b578063af42d106146102aa578063c575c238146102fd578063e2d84e2314610358578063ea8a1af0146103e8575b600080fd5b3480156100c057600080fd5b506100ed600480360381019080803590602001908201803590602001919091929391929390505050610417565b604051808215151515815260200191505060405180910390f35b34801561011357600080fd5b5061011c6105bf565b604051808215151515815260200191505060405180910390f35b34801561014257600080fd5b5061014b610731565b604051808215151515815260200191505060405180910390f35b34801561017157600080fd5b5061017a6108f7565b604051808215151515815260200191505060405180910390f35b3480156101a057600080fd5b506101a9610a07565b6040518080602001828103825283818151815260200191508051906020019080838360005b838110156101e95780820151818401526020810190506101ce565b50505050905090810190601f1680156102165780820380516001836020036101000a031916815260200191505b509250505060405180910390f35b34801561023057600080fd5b50610239610b04565b604051808273ffffffffffffffffffffffffffffffffffffffff1673ffffffffffffffffffffffffffffffffffffffff16815260200191505060405180910390f35b34801561028757600080fd5b50610290610b29565b604051808215151515815260200191505060405180910390f35b3480156102b657600080fd5b506102e3600480360381019080803590602001908201803590602001919091929391929390505050610b82565b604051808215151515815260200191505060405180910390f35b34801561030957600080fd5b5061033e600480360381019080803573ffffffffffffffffffffffffffffffffffffffff169060200190929190505050610d2a565b604051808215151515815260200191505060405180910390f35b34801561036457600080fd5b5061036d610f00565b6040518080602001828103825283818151815260200191508051906020019080838360005b838110156103ad578082015181840152602081019050610392565b50505050905090810190601f1680156103da5780820380516001836020036101000a031916815260200191505b509250505060405180910390f35b3480156103f457600080fd5b506103fd610ffd565b604051808215151515815260200191505060405180910390f35b60008060009054906101000a900473ffffffffffffffffffffffffffffffffffffffff1673ffffffffffffffffffffffffffffffffffffffff163373ffffffffffffffffffffffffffffffffffffffff161415156104dd576040517f08c379a000000000000000000000000000000000000000000000000000000000815260040180806020018281038252600d8152602001807f6e6f7420746865206f776e65720000000000000000000000000000000000000081525060200191505060405180910390fd5b600073ffffffffffffffffffffffffffffffffffffffff16600360009054906101000a900473ffffffffffffffffffffffffffffffffffffffff1673ffffffffffffffffffffffffffffffffffffffff161415156105a3576040517f08c379a000000000000000000000000000000000000000000000000000000000815260040180806020018281038252600f8152602001807f70656e64696e67207061796d656e74000000000000000000000000000000000081525060200191505060405180910390fd5b8282600291906105b49291906111d3565b506001905092915050565b6000600360009054906101000a900473ffffffffffffffffffffffffffffffffffffffff1673ffffffffffffffffffffffffffffffffffffffff163373ffffffffffffffffffffffffffffffffffffffff16141515610686576040517f08c379a00000000000000000000000000000000000000000000000000000000081526004018080602001828103825260118152602001807f6e6f742074686520726563697069656e7400000000000000000000000000000081525060200191505060405180910390fd5b600360009054906101000a900473ffffffffffffffffffffffffffffffffffffffff166000806101000a81548173ffffffffffffffffffffffffffffffffffffffff021916908373ffffffffffffffffffffffffffffffffffffffff1602179055506000600360006101000a81548173ffffffffffffffffffffffffffffffffffffffff021916908373ffffffffffffffffffffffffffffffffffffffff1602179055506001905090565b60008060009054906101000a900473ffffffffffffffffffffffffffffffffffffffff1673ffffffffffffffffffffffffffffffffffffffff163373ffffffffffffffffffffffffffffffffffffffff161415156107f7576040517f08c379a000000000000000000000000000000000000000000000000000000000815260040180806020018281038252600d8152602001807f6e6f7420746865206f776e65720000000000000000000000000000000000000081525060200191505060405180910390fd5b600073ffffffffffffffffffffffffffffffffffffffff16600360009054906101000a900473ffffffffffffffffffffffffffffffffffffffff1673ffffffffffffffffffffffffffffffffffffffff161415156108bd576040517f08c379a00000000000000000000000000000000000000000000000000000000081526004018080602001828103825260108152602001807f70656e64696e6720706179656d656e740000000000000000000000000000000081525060200191505060405180910390fd5b6000809054906101000a900473ffffffffffffffffffffffffffffffffffffffff1673ffffffffffffffffffffffffffffffffffffffff16ff5b6000600360009054906101000a900473ffffffffffffffffffffffffffffffffffffffff1673ffffffffffffffffffffffffffffffffffffffff163373ffffffffffffffffffffffffffffffffffffffff161415156109be576040517f08c379a00000000000000000000000000000000000000000000000000000000081526004018080602001828103825260118152602001807f6e6f742074686520726563697069656e7400000000000000000000000000000081525060200191505060405180910390fd5b6000600360006101000a81548173ffffffffffffffffffffffffffffffffffffffff021916908373ffffffffffffffffffffffffffffffffffffffff1602179055506001905090565b60606000809054906101000a900473ffffffffffffffffffffffffffffffffffffffff1673ffffffffffffffffffffffffffffffffffffffff163373ffffffffffffffffffffffffffffffffffffffff16141515610a6457600080fd5b60018054600181600116156101000203166002900480601f016020809104026020016040519081016040528092919081815260200182805460018160011615610100020316600290048015610afa5780601f10610acf57610100808354040283529160200191610afa565b820191906000526020600020905b815481529060010190602001808311610add57829003601f168201915b5050505050905090565b6000809054906101000a900473ffffffffffffffffffffffffffffffffffffffff1681565b60008073ffffffffffffffffffffffffffffffffffffffff16600360009054906101000a900473ffffffffffffffffffffffffffffffffffffffff1673ffffffffffffffffffffffffffffffffffffffff161415905090565b60008060009054906101000a900473ffffffffffffffffffffffffffffffffffffffff1673ffffffffffffffffffffffffffffffffffffffff163373ffffffffffffffffffffffffffffffffffffffff16141515610c48576040517f08c379a000000000000000000000000000000000000000000000000000000000815260040180806020018281038252600d8152602001807f6e6f7420746865206f776e65720000000000000000000000000000000000000081525060200191505060405180910390fd5b600073ffffffffffffffffffffffffffffffffffffffff16600360009054906101000a900473ffffffffffffffffffffffffffffffffffffffff1673ffffffffffffffffffffffffffffffffffffffff16141515610d0e576040517f08c379a000000000000000000000000000000000000000000000000000000000815260040180806020018281038252600f8152602001807f70656e64696e67207061796d656e74000000000000000000000000000000000081525060200191505060405180910390fd5b828260019190610d1f9291906111d3565b506001905092915050565b60003373ffffffffffffffffffffffffffffffffffffffff166000809054906101000a900473ffffffffffffffffffffffffffffffffffffffff1673ffffffffffffffffffffffffffffffffffffffff16141515610df0576040517f08c379a000000000000000000000000000000000000000000000000000000000815260040180806020018281038252600d8152602001807f6e6f7420746865206f776e65720000000000000000000000000000000000000081525060200191505060405180910390fd5b600073ffffffffffffffffffffffffffffffffffffffff16600360009054906101000a900473ffffffffffffffffffffffffffffffffffffffff1673ffffffffffffffffffffffffffffffffffffffff16141515610eb6576040517f08c379a000000000000000000000000000000000000000000000000000000000815260040180806020018281038252600f8152602001807f70656e64696e67207061796d656e74000000000000000000000000000000000081525060200191505060405180910390fd5b81600360006101000a81548173ffffffffffffffffffffffffffffffffffffffff021916908373ffffffffffffffffffffffffffffffffffffffff16021790555060019050919050565b60606000809054906101000a900473ffffffffffffffffffffffffffffffffffffffff1673ffffffffffffffffffffffffffffffffffffffff163373ffffffffffffffffffffffffffffffffffffffff16141515610f5d57600080fd5b60028054600181600116156101000203166002900480601f016020809104026020016040519081016040528092919081815260200182805460018160011615610100020316600290048015610ff35780601f10610fc857610100808354040283529160200191610ff3565b820191906000526020600020905b815481529060010190602001808311610fd657829003601f168201915b5050505050905090565b60008060009054906101000a900473ffffffffffffffffffffffffffffffffffffffff1673ffffffffffffffffffffffffffffffffffffffff163373ffffffffffffffffffffffffffffffffffffffff161415156110c3576040517f08c379a000000000000000000000000000000000000000000000000000000000815260040180806020018281038252600d8152602001807f6e6f7420746865206f776e65720000000000000000000000000000000000000081525060200191505060405180910390fd5b600073ffffffffffffffffffffffffffffffffffffffff16600360009054906101000a900473ffffffffffffffffffffffffffffffffffffffff1673ffffffffffffffffffffffffffffffffffffffff161415151561118a576040517f08c379a000000000000000000000000000000000000000000000000000000000815260040180806020018281038252600f8152602001807f70656e64696e67207061796d656e74000000000000000000000000000000000081525060200191505060405180910390fd5b6000600360006101000a81548173ffffffffffffffffffffffffffffffffffffffff021916908373ffffffffffffffffffffffffffffffffffffffff1602179055506001905090565b828054600181600116156101000203166002900490600052602060002090601f016020900481019282601f1061121457803560ff1916838001178555611242565b82800160010185558215611242579182015b82811115611241578235825591602001919060010190611226565b5b50905061124f9190611253565b5090565b61127591905b80821115611271576000816000905550600101611259565b5090565b905600a165627a7a723058200b69db6d5caff5ea9ea6e08d21dcf237794ff5f3111567c78cc2025c32ebdb270029",
  "source": "pragma solidity ^0.4.24;\n\nimport \"./Original.sol\";\n\ncontract OriginalPermissionedToken is Original {\n\n    address public owner;\n    string internal key;\n    string internal link;\n    address internal newOwner;\n\n    function sendToken(address _to) external returns(bool) {\n        require(owner == msg.sender,\"not the owner\");\n        require(newOwner == address(0),\"pending payment\");\n        newOwner = _to;\n        return true;\n    }\n    \n    \n    function accept() external returns(bool) { \n        require(msg.sender == newOwner,\"not the recipient\");\n        owner = newOwner;\n        newOwner = address(0);\n        return true;\n    }\n\n    function refuse() external returns(bool) {\n        require(msg.sender == newOwner,\"not the recipient\");\n        newOwner = address(0);\n        return true;\n    }\n    \n    function cancel() external returns(bool) {\n        require(msg.sender == owner,\"not the owner\");\n        require(newOwner != address(0),\"pending payment\");\n        newOwner = address(0);\n        return true;\n    }\n\n    function isPending() external constant returns(bool) {\n        return newOwner != address(0);\n    }\n\n    function setKey(string _newKey) external returns(bool) {\n        require(msg.sender == owner,\"not the owner\");\n        require(newOwner == address(0),\"pending payment\");\n        key = _newKey;\n        return true;\n    }\n    \n    function setLink(string _link) external returns(bool) {\n        require(msg.sender == owner,\"not the owner\");\n        require(newOwner == address(0),\"pending payment\");\n        link = _link;\n        return true;\n    }\n\n    function kill() external returns(bool) {\n        require(msg.sender == owner,\"not the owner\");\n        require(newOwner == address(0),\"pending payement\");\n        selfdestruct(owner);\n        return true;\n    }\n\n    function getKey() external constant returns(string) {\n        require(msg.sender == owner);\n        return key;\n    }\n\n    function getLink() external constant returns(string) {\n        require(msg.sender == owner);\n        return link;\n    }\n}",
  "sourcePath": "/home/giulio/DAPPS/originTKN/contracts/OriginalPermissionedToken.sol",
  "compiler": {
    "name": "solc",
    "version": "0.4.24+commit.e67f0147.Emscripten.clang"
  },
  "schemaVersion": "2.0.1",
  "updatedAt": "2018-07-22T14:37:55.959Z"
}